:020000040800F2
:10000000187C00209D02000851C20008B589000834
:1000100035B800086D190008B93A01080000000061
:1000200000000000000000000000000031E00008B7
:10003000012500080000000061C600082DF000083E
:10004000B7020008B7020008B7020008B7020008AC
:10005000B7020008B7020008B7020008B70200089C
:10006000B70200086D270008B7020008B7020008B1
:10007000B9220008B7020008B7020008B70200085A
:10008000B7020008B7020008B7020008B70200086C
:1000900071190008B7020008B7020008B70200088B
:1000A000B702000839F10008B7020008B7020008DB
:1000B000B7020008B702000849F10008B7020008BB
:1000C000B7020008B7020008B7020008B70200082C
:1000D000B7020008B7020008B702000841FF000895
:1000E000B7020008B7020008B7020008B70200080C
:1000F000B702000859F10008B7020008B70200086B
:10010000B7020008B7020008B7020008B7020008EB
:10011000B7020008B7020008B7020008B7020008DB
:10012000B7020008B7020008B7020008B7020008CB
:10013000B7020008B7020008B7020008B7020008BB
:10014000B702000881190008B7020008C1C2000800
:10015000B7020008B7020008C9220008B702000869
:10016000B7020008B7020008B7020008B70200088B
:10017000B7020008B7020008B7020008000000003C
:10018000B7020008B702000800F002F800F076F8A5
:1001900014A696E8000CB244B344DA4501D100F04D
:1001A0006DF8BAE80F000FA696E83000A5EB04053D
:1001B00004EB0607AAEB0704A7F101074FEA1515A0
:1001C0004FEA3414A4F10104AC4201D300F056F814
:1001D00013F0010F18BFFB1A43F0010300F001F800
:1001E000DBE71847FCAE01001CAF01000A444FF0EA
:1001F000000C10F8013B13F0070408BF10F8014B86
:100200001D1108BF10F8015B641E05D010F8016BCA
:10021000641E01F8016BF9D113F0080F1EBF10F82E
:10022000014BAD1C0C1B09D16D1E58BF01F801CB51
:10023000FAD505E014F8016B01F8016B6D1EF9D5D4
:100240009142D6D37047000070470000002300247D
:1002500000250026103A28BF78C1FBD8520728BFD6
:1002600030C148BF0B6070471FB51AF07EFA9DE899
:10027000030000F057FA1FBD10B510BD00F0C6FA1C
:100280001146FFF7F1FF15F0B5F900F0E4FA03B4F9
:10029000FFF7F2FF03BC00F015FB000009488047A0
:1002A00009480047FEE7FEE7FEE7FEE7FEE7FEE758
:1002B000FEE7FEE7FEE7FEE704480549054A064B70
:1002C0007047000025F1000889010008187400201B
:1002D000187C0020187800201878002070B5064699
:1002E00000F004FA056806F10B0020F00704B442A0
:1002F0009CBF002070BD2B466A68BAB11068A0424E
:1003000010D304F1080188423CBF5068586007D3FD
:100310005168101941601168091B01605860146030
:10032000101D70BD13465268002AE7D121462846A9
:1003300000F0E4F90028DED170BD70B50446051F59
:1003400000F0D4F90068002C14BF446870BD002C84
:1003500018BFAC423CBF20466468F8D301680A1855
:10036000AA4218BF456003D12A68054611440160BE
:1003700028684119A1421CBF6C6070BD616869604A
:1003800021680844286070BD53EA020C00F06980BF
:100390002DE9F04B4FF00006002B1FBFB3FA83F599
:1003A00003FA05F424FA05F65E4012BF1643B2FACA
:1003B00082F502FA05F4C5F120051EBF22FA05FCFC
:1003C00044EA0C04203556EA044C4FEA144418BFA2
:1003D000641C4FF000084FF00009904271EB030CD1
:1003E00039D3002919BFB1FA81F701FA07F6B0FA3B
:1003F00080F700FA07F6C7F120071EBF20FA07FCB6
:1004000046EA0C062037B6FBF4FCA7EB0507103FC5
:1004100007F01F0BCBF120062CFA06F60CFA0BFBAB
:1004200044BFB3460026202FA4BF5E464FF0000B0A
:100430005BEA060C08BF4FF0010B19EB0B0948EB08
:100440000608ABFB027C06FB02CC0BFB03CCC01BFB
:1004500071EB0C01C1E70B46024641464846BDE838
:10046000F08B13B5084318BF4FF0FF300146AFF3D0
:100470000080BDE81C40704770B50D460A46044632
:10048000002100F08FF908B1001B70BD284670BD37
:1004900040EA0103024630B59B0710D14FF001340A
:1004A00000E008C208C91D1B9D4315EAC41FF8D00F
:1004B00013F0FF0102F8011B0DD01B0AF8E711F839
:1004C000013B002B02F8013B05D011F8013B002B4A
:1004D00002F8013BF3D130BD032A40F2308010F026
:1004E000030C00F0158011F8013BBCF1020F6244CF
:1004F00098BF11F801CB00F8013B38BF11F8013B60
:10050000A2F1040298BF00F801CB38BF00F8013B0C
:1005100011F0030300F02580083AC0F0088051F87C
:10052000043B083A51F804CBA0E80810F5E7121D87
:100530005CBF51F8043B40F8043BAFF30080D207A6
:1005400024BF11F8013B11F801CB48BF11F8012B72
:1005500024BF00F8013B00F801CB48BF00F8012B95
:10056000704710B5203AC0F00B80B1E81850A0E8F1
:100570001850B1E81850A0E81850203ABFF4F5AF71
:100580005FEA027C24BFB1E81850A0E8185044BFCD
:1005900018C918C0BDE810405FEA827C24BF51F83A
:1005A000043B40F8043B08BF7047D20728BF31F82E
:1005B000023B48BF11F8012B28BF20F8023B48BF7F
:1005C00000F8012B704702F0FF0343EA032242EADE
:1005D000024200F024B84FF000020429C0F012805B
:1005E00010F0030C00F01B80CCF1040CBCF1020FE6
:1005F00018BF00F8012BA8BF20F8022BA1EB0C01BB
:1006000000F00DB85FEAC17C24BF00F8012B00F8B0
:10061000012B48BF00F8012B70474FF0000200B5D6
:10062000134694469646203922BFA0E80C50A0E815
:100630000C50B1F12001BFF4F7AF090728BFA0E8C3
:100640000C5048BF0CC05DF804EB890028BF40F88F
:10065000042B08BF704748BF20F8022B11F0804FD1
:1006600018BF00F8012B704730B44FF0013C50F830
:10067000042B51F8043BCCFA52F4D51A20D1FCB922
:1006800050F8042B51F8043BCCFA52F4D51A17D188
:10069000B4B950F8042B51F8043BCCFA52F4D51AF3
:1006A0000ED16CB950F8042B51F8043BCCFA52F43B
:1006B000D51A05D1002CDAD030BC4FF000007047BD
:1006C00029BAB1FA81F111F01801D1F1200084406A
:1006D000F2D1CA40CB4012F0FF0213F0FF0330BC4E
:1006E000D01A704770477047704700000048704745
:1006F00028050020704770477047704738B504469A
:100700000A4600206946AFF30080002808BF38BDC4
:1007100002460099204600F057F8012038BD01201C
:1007200000F06CB8F8B5AFF30080054600200C4629
:100730000C2000BF0646A819A0420DD932466946D2
:100740000020AFF30080070008BF00F057F80098C2
:10075000A04218BF0546C419FFF7C8FF0560074649
:10076000F01D20F007004619284600F00AF8B442B0
:1007700008BFF8BDA21B31463868BDE8F84000F05C
:1007800023B800210160416070470C20704710B50C
:1007900000F016F8006810BD10B5044600F010F81F
:1007A000046010BDCBB22AB101788B4203D0401C4B
:1007B000521EF9D1002070470048704720050020E4
:1007C0000048704720050020034640688C460028FA
:1007D00018BF88423CBF03464068F8D318681844E5
:1007E000884207D00CF1030020F00700001D411AD9
:1007F000521A0146081D0A60FFF79FBD10B500F0B0
:1008000039F8BDE8104000F02FB870477546FFF783
:10081000D3FFAE4605006946534620F007008546E3
:1008200018B020B5FFF748FDBDE820404FF00006A6
:100830004FF000074FF000084FF0000BAC46ACE85B
:10084000C009ACE8C009ACE8C009ACE8C00921F0B7
:1008500007018D46704710B50446AFF3008020466F
:10086000BDE81040FFF713BD002801D000F02AB802
:100870007047000010B5012805D0002103A000F04A
:1008800027F8012010BD09A1F8E70000534947529D
:10089000544D454D3A204F7574206F662068656150
:1008A00070206D656D6F7279000000003A20486518
:1008B0006170206D656D6F727920636F72727570F3
:1008C0007465640001491820ABBEFEE726000200F3
:1008D00070B505460C460A2000E06D1C00F011F8CA
:1008E00035B128780028F8D102E0641C00F009F83E
:1008F00014B120780028F8D1BDE870400A20AFF389
:10090000008008B569468DF800000320ABBE08BD25
:1009100081B08DED000AFFE79DED000A9FED141AEE
:10092000B4EE410AF1EE10FA09DDFFE79DED000A91
:100930009FED121A30EE010A8DED000AECE7FFE799
:100940009DED000A9FED0B1AB4EE410AF1EE10FA8C
:1009500009DAFFE79DED000A9FED071A30EE010A64
:100960008DED000AECE79DED000A01B0704700BF75
:10097000DC0F4940DC0F49C0DC0FC940DC0FC9C0A7
:1009800080B58AB008908DF81F1006928DF8173048
:10099000089838B1FFE7069820B1FFE79DF81700E7
:1009A00020B9FFE700208DF8270024E00020049004
:1009B0000390029001909DF81F0040F080008DF898
:1009C0000C0008989DF817100231CBB201A903AAB8
:1009D0000DF06EFC58B1FFE7069801A902319DF8B1
:1009E0001720FFF779FD01208DF8270003E0002094
:1009F0008DF82700FFE79DF827000AB080BD0000B2
:100A000080B584B002908DF807108DF8062002980A
:100A100020B9FFE700208DF80F000FE09DF80700D8
:100A20008DF804009DF806008DF80500029801A9D4
:100A300002220DF0EDFC8DF80F00FFE79DF80F008E
:100A400004B080BD80B59EB01D901D9808B9FFE729
:100A5000EFE241F27070ADF872004FF07C501B90E5
:100A600049F69A10C3F619601A904DF20A70C3F64F
:100A70002340199001F0D0FD8DED0B0AFFE701F046
:100A8000CBFD9DED0B1A30EE410AB2EE041AB4EE26
:100A9000410AF1EE10FA1BDDFFE71D990020886284
:100AA0001D99C8621D9908631D994CF6CD40C4F28A
:100AB0001C1008641D990020C4F2202048641D9970
:100AC0004FF07E50C8631D9988631D99486396E274
:100AD0001D99002008641D9988621D99C8621D999E
:100AE0000863ADF82A00FFE7BDF82A0041F26F71F4
:100AF000884200F3DA81FFE70020ADF82800099072
:100B00001D980068122109AA0623FFF739FF002863
:100B100069D0FFE74FF0655007909DF824009DF8DD
:100B2000251040EA0120ADF82200BDF9220000EEB8
:100B3000100AB8EEC00A9DED071A20EE010A9FEDDB
:100B4000E41A20EE010A1D9880ED030A9DF82600A4
:100B50009DF8271040EA0120ADF82200BDF92200DF
:100B600000EE100AB8EEC00A9DED072A20EE020A38
:100B700020EE010A1D9880ED040A9DF828009DF8DA
:100B8000291040EA0120ADF82200BDF9220000EE54
:100B9000100AB8EEC00A9DED072A20EE020A20EEE8
:100BA000010A1D9880ED050A1D9890ED031A90ED3D
:100BB000042A90ED050A22EE022A21EE011A31EEF6
:100BC000021A20EE000A30EE010A18F06BFD8DEDDE
:100BD000120A9DED121A1D9890ED100A30EE010ACE
:100BE00080ED100AFFE70021069105911D984068ED
:100BF00005AA082300F06AFA002866D0FFE79DF8EE
:100C000014000F2860D1FFE74AF25800C3F68B208A
:100C100003909DF816009DF8171040EA0120ADF8EA
:100C20001200BDF9120000EE100AB8EEC00A9DEDE8
:100C3000031A20EE010A1D9880ED060A1D9890ED1A
:100C4000061A90ED0A0A30EE010A80ED0A0A9DF8B4
:100C500018009DF8191040EA0120ADF81200BDF906
:100C6000120000EE100AB8EEC00A9DED031A20EE45
:100C7000010A1D9880ED070A1D9890ED071A90ED66
:100C80000B0A30EE010A80ED0B0A9DF81A009DF860
:100C90001B1040EA0120ADF81200BDF9120000EE71
:100CA000100AB8EEC00A9DED031A20EE010A1D9845
:100CB00080ED080A1D9890ED081A90ED0C0A30EEB0
:100CC000010A80ED0C0AFFE7FFE7BDF82A0050BBE0
:100CD000FFE79DED120A8DED100A8DED110A00203F
:100CE0008DF80B00FFE79DF80B0002281ADCFFE7E8
:100CF0001D989DF80B1000EB810090ED060A13A8DB
:100D000000EB810080ED000A9DF80B1016A800EBA7
:100D1000810080ED000AFFE79DF80B0001308DF89F
:100D20000B00E0E762E09DED120A9DED111AB4EEB2
:100D3000410AF1EE10FA03DDFFE712981190FFE788
:100D40009DED120A9DED101AB4EE410AF1EE10FA73
:100D500003DAFFE712981090FFE700208DF80A00F1
:100D6000FFE79DF80A0002283FDCFFE71D989DF889
:100D70000A1000EB810090ED060A16A800EB810036
:100D800090ED001AB4EE410AF1EE10FA0ADDFFE729
:100D90001D989DF80A2000EB8200806916A941F891
:100DA0002200FFE71D989DF80A1000EB810090EDEE
:100DB000060A13A800EB810090ED001AB4EE410A78
:100DC000F1EE10FA0ADAFFE71D989DF80A2000EB11
:100DD0008200806913A941F82200FFE7FFE79DF830
:100DE0000A0001308DF80A00BBE7FFE79DED110A0C
:100DF0009DED101A30EE410A8DED0C0A00208DF8A1
:100E00000900FFE79DF8090002281ADCFFE79DF8BA
:100E1000091016A800EB810090ED000A13A800EB62
:100E2000810090ED001A30EE410A0DA800EB810020
:100E300080ED000AFFE79DF8090001308DF80900F8
:100E4000E0E79DED0C0AB6EE001AB4EE410AF1EEB1
:100E500010FA1EDCFFE79DED0D0A9FED771AB4EE48
:100E6000410AF1EE10FA14DCFFE79DED0E0A9FED4A
:100E7000721AB4EE410AF1EE10FA0ADCFFE79DEDBA
:100E80000F0A9FED6D1AB4EE410AF1EE10FA01DD82
:100E9000FFE70AE09FED690A01F06CFBFFE7BDF890
:100EA0002A000130ADF82A001EE61D9890ED100AC8
:100EB0009FED631A80EE010A80ED100A00208DF884
:100EC0000800FFE79DF80800022817DC02E000BFD9
:100ED000CDCC1C411D989DF8081000EB810090EDD1
:100EE0000A0A9FED571A80EE010A80ED0A0AFFE711
:100EF0009DF8080001308DF80800E3E71D9951F8CE
:100F0000440B00F043FA9FED4F0A01F033FBFFE77B
:100F10009DED0C0A0120B6EE001AB4EE410AF1EE86
:100F200010FA009065DCFFE71D9890ED100A9FED28
:100F3000461A30EE010AB0EEC00A0120B6EE001AE1
:100F4000B4EE410AF1EE10FA009052DCFFE79DED9D
:100F50000D0A01209FED381AB4EE410AF1EE10FAA5
:100F6000009046DCFFE79DED0E0A01209FED321A4E
:100F7000B4EE410AF1EE10FA00903ADCFFE79DED85
:100F80000F0A01209FED2C1AB4EE410AF1EE10FA7F
:100F900000902EDCFFE71D9890ED0A0AB0EEC00A23
:100FA00001209FED2A1AB4EE410AF1EE10FA0090EA
:100FB0001FDCFFE71D9890ED0B0AB0EEC00A012080
:100FC0009FED221AB4EE410AF1EE10FA009010DC07
:100FD000FFE71D9890ED0C0AB0EEC00A9FED1B1ABA
:100FE0000020B4EE410AF1EE10FAC8BF01200090D3
:100FF000FFE70098C00700287FF441ADFFE71D9888
:1010000090ED101A9FED120A80EE010A8DED010A93
:1010100001981D99486301981D99886301981D994D
:10102000C8631D99012081F84A001D9981F84B0081
:10103000FFE71EB080BD00BF9A99193E6F12033AB8
:101040000080BB450AD7A33BCDCC1CC10AD7233CAB
:10105000C3F51C4180B586B00490039100218DF842
:101060000B108DF80A1004980DF10B020123FFF705
:1010700087FC20B9FFE700208DF8170021E00398D6
:1010800000210DF10A02012300F020F820B9FFE74A
:1010900000208DF8170014E09DF80B1000201E2989
:1010A000019008D1FFE79DF80A000F38B0FA80F0F0
:1010B00040090190FFE7019800F001008DF817004A
:1010C000FFE79DF8170006B080BD000080B588B02E
:1010D00006908DF8171004928DF80F30069838B1ED
:1010E000FFE7049820B1FFE79DF80F0020B9FFE764
:1010F00000208DF81F0026E00020CDF80B000290A4
:10110000CDF8030000909DF8170040F080008DF8A6
:10111000080006989DF80F100131CBB2694602AA6B
:101120000DF0C6F858B1FFE70498694601319DF803
:101130000F20FFF7D1F901208DF81F0003E00020F8
:101140008DF81F00FFE79DF81F0008B080BD00006C
:1011500080B584B002908DF807108DF806200298B3
:1011600020B9FFE700208DF80F000FE09DF8070081
:101170008DF804009DF806008DF80500029801A97D
:1011800002220DF045F98DF80F00FFE79DF80F00E2
:1011900004B080BD80B582B00090009820B9FFE710
:1011A00000208DF8070055E0009951F80C0B00F075
:1011B00055F820B9FFE700208DF807004AE00098B5
:1011C00090ED030A90ED0D1A20EE010A80ED030A5E
:1011D000009890ED040A90ED0E1A20EE010A80EDC1
:1011E000040A009890ED050A90ED0F1A20EE010A0E
:1011F00080ED050A00994868183100F07BF820B9A5
:10120000FFE700208DF8070024E0009890F84A00DE
:10121000E0B1FFE7009890ED060A90ED0A1A30EE73
:10122000410A80ED060A009890ED070A90ED0B1A2E
:1012300030EE410A80ED070A009890ED080A90ED23
:101240000C1A30EE410A80ED080AFFE701208DF804
:101250000700FFE79DF8070002B080BD80B588B0A9
:10126000069005910020ADF8100003900698122119
:1012700003AA0623FFF784FB20B9FFE700208DF8BF
:101280001F0031E04FF06550029000200190FFE711
:101290000198022824DCFFE7019A03A800EB420131
:1012A000497810F8120040EA0120ADF80200BDF9BB
:1012B000020000EE100AB8EEC00A9DED021A20EE00
:1012C000010A9FED0B1A20EE010A0598019900EB27
:1012D000810080ED000AFFE7019801300190D7E717
:1012E00001208DF81F00FFE79DF81F0008B080BDAA
:1012F000CDCC1C4180B588B00690059100210491A9
:101300000391069803AA0823FFF7E0FE20B9FFE740
:1013100000208DF81F0032E09DF80C000F2804D04B
:10132000FFE700208DF81F0029E000200290FFE772
:10133000029802281FDCFFE7029903A800EB410195
:101340008878C97840EA0120ADF80600BDF90600AA
:1013500000EE100AB8EEC00A9FED0B1A20EE010A4B
:101360000598029900EB810080ED000AFFE70298E2
:1013700001300290DCE701208DF81F00FFE79DF8A7
:101380001F0008B080BD00BF58A08B3A80B586B062
:1013900004900391049818B1FFE7039820B9FFE780
:1013A00000208DF8170048E00020ADF80A000498EE
:1013B00022210DF10A020223FFF7E2FA20B9FFE72A
:1013C00000208DF8170038E09DF80B00802804D12C
:1013D000FFE700208DF817002FE09DF80A009DF828
:1013E0000B10C00040EA5110ADF80800BDF808002D
:1013F000B0F5806F07DBFFE7BDF80800A0F50060DF
:10140000ADF8060004E0BDF80800ADF80600FFE7FF
:10141000BDF9060000EE100AB8EEC00AB4EE001ADC
:1014200020EE010AB3EE071A30EE010A039880EDB0
:10143000000A01208DF81700FFE79DF8170006B09D
:1014400080BD000082B00190019828B1FFE70198AB
:10145000D0F87A0008B9FFE708E00198D0F87A00E0
:1014600000900099012081F84900FFE702B0704721
:1014700080B586B00490049840B1FFE704980068F6
:1014800020B1FFE70498406820B9FFE700208DF8FD
:10149000170067E100218DF80F10049800680DF126
:1014A0000F020123FFF76CFA9FEDB00A01F062F81A
:1014B000049908684968FFF7CDFD20B9FFE70020CF
:1014C0008DF817004EE1049800687E21B622FFF7E0
:1014D00097FA20B9FFE700208DF8170042E19FED51
:1014E000A40A01F047F8049800687C210022FFF765
:1014F00087FA20B9FFE700208DF8170032E1049841
:1015000000687D210422FFF77BFA20B9FFE7002065
:101510008DF8170026E100208DF80E009FED950A4A
:1015200001F028F8049800687D210DF10E020123D6
:10153000FFF726FA20B9FFE700208DF8170011E128
:10154000049800684021AB22FFF75AFA20B9FFE760
:1015500000208DF8170005E100208DF80D009FEDAB
:10156000850A01F007F80498006840210DF10D028A
:101570000123FFF705FA28B1FFE79DF80D00AB281E
:1015800004D0FFE700208DF81700EBE00498006816
:1015900041210122FFF734FA20B9FFE700208DF83E
:1015A0001700DFE000208DF80C009FED720A00F0BC
:1015B000E1FF04980068412103AA0123FFF7E0F945
:1015C00028B1FFE79DF80C00012804D0FFE70020B8
:1015D0008DF81700C6E00498006853210822FFF731
:1015E0000FFA20B9FFE700208DF81700BAE0049841
:1015F000006858210422FFF703FA20B9FFE7002012
:101600008DF81700AEE0049840681421B622FFF769
:101610009FFD20B9FFE700208DF81700A2E09FEDA5
:10162000560A00F0A7FF049840680F210022FFF738
:101630008FFD20B9FFE700208DF8170092E0002011
:101640008DF80B009FED4B0A00F094FF0498406862
:101650000F210DF10B020123FFF738FD20B1FFE749
:101660009DF80B0020B1FFE700208DF8170079E00E
:101670000498406810218122FFF76AFD20B9FFE736
:1016800000208DF817006DE00498406811210022B9
:10169000FFF75EFD20B9FFE700208DF8170061E03D
:1016A0000498406815218022FFF752FD20B9FFE71A
:1016B00000208DF8170055E004984068162101229B
:1016C000FFF746FD20B9FFE700208DF8170049E03D
:1016D0000498406818210122FFF73AFD20B9FFE77E
:1016E00000208DF817003DE000200190FFE70198F1
:1016F00002281CDCFFE70498019900EB810100201F
:1017000088620499019A01EB82024FF07E51516385
:101710000499019A01EB8201C8600499019A01EBD6
:1017200082018861FFE7019801300190DFE70498AA
:1017300000214162049A4CF6CD40C4F21C101064A2
:10174000049A0020C4F220205064049880F84B10C2
:10175000049A012082F84800049A82F849108DF812
:101760001700FFE79DF8170006B080BD6F12833A9F
:101770006F12033B0AD7233CA69B443B80B58EB037
:101780000C900C9818B9FFE700200D9096E04C20C3
:1017900014F01EFF0B900B9818B9FFE700200D9076
:1017A0008CE00020ADF82A000B984C21FEF735FFA5
:1017B0000B9941F24540C0F6000088600C99096819
:1017C000CDF815100C994968CDF819100C990989B4
:1017D000ADF81D1008218DF81F108DF820100C9900
:1017E000097B8DF82110CDF822000B99CDF8261039
:1017F0000C99D1F8151000910C99D1F8191001919C
:101800000C99B1F81D10ADF8081007218DF80A10D9
:101810008DF80B100C9991F821108DF80C10CDF863
:101820000D000B98CDF811000DF115000CF066FCC1
:101830000B99086068460CF061FC0B9948600B98A6
:10184000006820B1FFE70B98406830B9FFE70B98BC
:1018500015F07CF900200D9030E00C9890F82A00EB
:101860000B9981F84A00FFE70B98FFF701FE01286A
:1018700005D0FFE79FED130A00F07CFEF4E7BDF80A
:101880002A00642806DBFFE70B9815F05FF90020BB
:101890000D9013E00B9890F84A0020B1FFE70B98E9
:1018A000FFF7D0F8FFE70B99012081F848000B996A
:1018B000002081F849000B980D90FFE70D980EB0BD
:1018C00080BD00BFCDCCCC3D80B586B005900598DD
:1018D00028B1FFE70598D0F83B0008B9FFE743E0DF
:1018E0000598D0F83B0004900499059AD06A126BD1
:1018F000C1F80D20C1F809000498007A0146019151
:1019000020B1FFE70198012811D02CE0049809309C
:1019100003900398007800F0010004990877039879
:10192000408813F073FC049880ED080A1CE00498CA
:10193000093002900298007804994874029840781F
:1019400000F00100049988740298408813F05EFC4E
:10195000049880ED050A0298808813F057FC0498DB
:1019600080ED060A00E0FFE706B080BDFFE7FEE776
:1019700080B542F23850C2F2000001F089FA80BD11
:1019800080B542F26050C2F2000001F081FA80BDE1
:1019900082B08DF803009DF80300012806D1FFE70F
:1019A00042F23850C2F2000001900DE09DF80300B1
:1019B000022806D1FFE742F26050C2F20000019017
:1019C00002E000200190FFE7019802B0704700009C
:1019D00084B08DF80F000291ADF806209DF80F003D
:1019E0000146009123281DD80099DFE801F0121369
:1019F0001415161B1B1B1B1B1B1B1B1B1B1B1B1B49
:101A00001B1B1B1B1B1B1B1B1B1B1B1B1B1B17182D
:101A1000191A08E007E006E005E004E003E002E050
:101A200001E000E0FFE7002004B0704700207047AD
:101A300080B582B042F25C20C2F20000009041F218
:101A40002051C2F20001002201920EF021FE009806
:101A500040F62051C2F200010EF0FCFD019802B0E8
:101A600080BD000080B584B003900291039942F2DA
:101A70005C20C2F2000001900EF0ECFD01980EF027
:101A80008FFD002004B080BD83B0029001918DF8DD
:101A9000032000208DF802009DF9020003B070477A
:101AA00080B596B0012114910020129013910C90F2
:101AB0000D900E900F9011901090FFE742F2385069
:101AC000C2F200000CA900F0A3FFB0B1FFE74AF694
:101AD000A930C0F60100694608604AF6B861C0F650
:101AE00001014AF6AE32C0F601024AF6A033C0F652
:101AF000010300200BF05EFBE0E701210A910020CA
:101B000008900991069102900390049005900E2090
:101B100007900B90FFE742F26050C2F2000002A96A
:101B200000F076FFB0B1FFE74AF6A930C0F6010039
:101B3000694608604AF6E161C0F601014AF6AE3234
:101B4000C0F601024AF6A033C0F6010300200BF0F4
:101B500031FBE0E716B080BD80B586B0FFF7A0FF8F
:101B60004AF6A930C0F601000290694608604AF6BC
:101B7000D471C0F601014AF6B632C0F601020392F2
:101B80004AF6A333C0F601030493002005900BF03E
:101B900011FB00F045FA02990598039A049BEC4664
:101BA000CCF800104AF68C71C0F601010BF002FB74
:101BB0000299039A049B059840F2C23CC2F2000CC1
:101BC0008CF80000EC46CCF800104AF6B471C0F670
:101BD00001010BF0EFFA06B080BD000080B58CB0BB
:101BE0000A9040F2C230C2F200000078C00718B17B
:101BF000FFE7FFF7B1FFFFE70A9800F067F818B9B1
:101C0000FFE700200B905EE03F2014F0E1FC09901C
:101C10000998E0B9FFE70A9800684AF6A932C0F6C9
:101C2000010269464A6008604BF20001C0F60101FA
:101C30004AF6AE32C0F601024AF6A033C0F60103FE
:101C4000002002900BF0B6FA02980B903BE0099846
:101C50003F21FEF7C0FC0A980068099908600A98BD
:101C60000079FFF795FE099948600A98B0F80500D9
:101C700009990884099808300A99B1F80510039168
:101C80000021049105910691082207928DF82010F9
:101C900003A91822FEF720FC0A98B0F8070009995A
:101CA00048850A98D0F809000999C1F837000A98C0
:101CB000D0F80D000999C1F83B00099800F03EF9F1
:101CC00009980B90FFE70B980CB080BD80B58CB0E5
:101CD0000A900A98D0B9FFE74AF6A930C0F6010089
:101CE000694608604AF63141C0F601014AF6AE3253
:101CF000C0F601024AF6A033C0F6010300200890A6
:101D00000BF058FA08988DF82F0013E10A98006834
:101D1000A0B1FFE70A98B0F8070078B1FFE70A988A
:101D2000B0F8050050B1FFE70A98007901281FD0EC
:101D3000FFE70A98007902281AD0FFE74AF6A9308F
:101D4000C0F60100694608604AF62461C0F6010148
:101D50004AF6AE32C0F601024AF6A033C0F60103DD
:101D6000002007900BF026FA07988DF82F00E1E08D
:101D70000A98007901286AD1FFE742F22420C2F2D2
:101D80000000007808281DD1FFE70A9800684AF68D
:101D9000A932C0F6010269464A6008604AF63B5122
:101DA000C0F601014AF6AE32C0F601024AF6A0338F
:101DB000C0F60103002006900BF0FCF906988DF8A0
:101DC0002F00B7E000208DF82700FFE79DF82700DF
:101DD00042F22421C2F200010978884236DAFFE794
:101DE0009DF8271042F2E410C2F2000050F82100E2
:101DF000408D0A99B1F80710884220D1FFE70A996F
:101E00000868B1F807204AF6A933C0F6010369460D
:101E10008B604A6008604AF60A71C0F601014AF612
:101E2000AE32C0F601024AF6A033C0F6010300202C
:101E300005900BF0BFF905988DF82F007AE0FFE7C9
:101E40009DF8270001308DF82700BFE7FFE70A98CB
:101E5000007902286AD1FFE742F22520C2F2000091
:101E6000007808281DD1FFE70A9800684AF6A932D1
:101E7000C0F6010269464A6008604AF67B51C0F626
:101E800001014AF6AE32C0F601024AF6A033C0F6AE
:101E90000103002004900BF08DF904988DF82F00B9
:101EA00048E000208DF82600FFE79DF8260042F26A
:101EB0002521C2F200010978884236DAFFE79DF851
:101EC000261042F20420C2F2000050F82100408D9A
:101ED0000A99B1F80710884220D1FFE70A990868EB
:101EE000B1F807204AF6A933C0F6010369468B60B2
:101EF0004A6008604AF64B71C0F601014AF6AE32FC
:101F0000C0F601024AF6A033C0F601030020039098
:101F10000BF050F903988DF82F000BE0FFE79DF8C8
:101F2000260001308DF82600BFE7FFE701208DF87D
:101F30002F00FFE79DF82F000CB080BD80B586B064
:101F400005900598406842F23851C2F2000188427B
:101F50002DD1FFE7059842F22421C2F200010B784F
:101F600042F2E412C2F2000242F823000878013083
:101F70000870059908680A8C4B8D4AF6A93CC0F692
:101F8000010C6946C1F80CC08B604A6008604AF6D3
:101F90006141C0F601014AF6B632C0F601024AF6C6
:101FA000A333C0F6010300200BF004F9FFE7059806
:101FB000406842F26051C2F2000188422DD1FFE731
:101FC000059842F22521C2F200010B7842F2042268
:101FD000C2F2000242F82300087801300870059927
:101FE00008680A8C4B8D4AF6A93CC0F6010C69467C
:101FF000C1F80CC08B604A6008604AF6A741C0F681
:1020000001014AF6B632C0F601024AF6A333C0F621
:10201000010300200BF0CEF8FFE706B080BD000002
:1020200080B582B0FFE742F23850C2F2000001F002
:10203000AFFBB0B1FFE74AF6A930C0F60100694630
:1020400008604AF6BB51C0F601014AF6AE32C0F64E
:1020500001024AF6A033C0F6010300200BF0AAF8F3
:10206000E1E7FFE742F26050C2F2000001F090FBAE
:10207000B0B1FFE74AF6A930C0F601006946086032
:102080004AF6D851C0F601014AF6AE32C0F6010256
:102090004AF6A033C0F6010300200BF08BF8E1E70D
:1020A000FFE742F23850C2F20000022100F0DAFBF2
:1020B000B0B1FFE74AF6A930C0F6010069460860F2
:1020C0004AF65A61C0F601014AF6AE32C0F6010284
:1020D0004AF6A033C0F6010300200BF06BF8E0E7EE
:1020E000FFE742F26050C2F20000102100F0BAFB9C
:1020F000B0B1FFE74AF6A930C0F6010069460860B2
:102100004AF68961C0F601014AF6AE32C0F6010214
:102110004AF6A033C0F6010300200BF04BF8E0E7CD
:1021200002B080BD80B588B006900698D0B9FFE7B0
:102130004AF6A930C0F60100694608604AF6C63181
:10214000C0F601014AF6AE32C0F601024AF6A033EB
:10215000C0F60103002003900BF02CF803988DF8D3
:102160001F0042E000208DF81700FFE70698406846
:1021700000F056FE28BBFFE79DF8170001308DF8F0
:1021800017009DF8170065281ADBFFE74AF6A9300B
:10219000C0F60100694608604AF6F551C0F6010133
:1021A0004AF6AE32C0F601024AF6A033C0F6010389
:1021B000002002900AF0FEFF02988DF81F0014E044
:1021C000D4E701200490069A506802F108012232F7
:1021D00004AB00F071FB20B9FFE701208DF81F0070
:1021E00003E000208DF81F00FFE79DF81F0008B0F6
:1021F00080BD000081B08DF803008DF802109DF8BD
:1022000003009DF80210884202D0FFE7FFE7FEE7D7
:1022100001B0704780B582B0019001982121FEF78E
:102220002BF9202802D3FFE7FFE7FEE702B080BDCD
:1022300080B586B004908DF80F100498FFF7EAFF80
:1022400040F22410C2F200000290FFE70298406AB8
:10225000A0B1FFE70298406A029002980499FEF745
:1022600003FA50B9FFE7029890F821009DF80F108B
:10227000FFF7C0FF029805901AE0E7E72C200190D5
:10228000FEF72CF80199029A50620298406AFEF714
:10229000C4F99DF80F000299496A81F8210002985B
:1022A000406A0499FEF7F4F80298406A0590FFE747
:1022B000059806B080BD000080B542F2E850C2F239
:1022C000000001F05FFB80BD80B542F28850C2F291
:1022D000000001F057FB80BD82B0019001980078AA
:1022E00010384AF6AB21CAF6AA21A0FB011000095A
:1022F000009000994AF63420C0F60100405C019934
:10230000C8650098042807D3FFE7019908680422EC
:1023100062F30900886506E00199086840F2FF321F
:1023200090438865FFE70198806D02B07047000018
:1023300086B0059000208DF813000598806A039000
:102340000598806910BBFFE70398029003281BD80B
:102350000299DFE801F0020D0218059890F82F00AD
:10236000C00720B1FFE701208DF81300FFE70CE064
:102370000598C06AB0F1C07F04D1FFE701208DF855
:102380001300FFE701E000E0FFE745E00598806902
:10239000B0F5005F25D1FFE70398019003281ED810
:1023A0000199DFE801F00206021101208DF8130007
:1023B00016E0059890F82F00C00720B1FFE7012034
:1023C0008DF81300FFE70BE00598C06AB0F1C07FFD
:1023D00004D1FFE701208DF81300FFE700E0FFE7DD
:1023E00019E003980090032804D3FFE7009803281E
:1023F00004D00EE001208DF813000BE0059890F852
:102400002F00C00720B1FFE701208DF81300FFE780
:1024100000E0FFE7FFE7FFE79DF8130006B0704715
:1024200084B00390029101920093039801680868B8
:1024300020F4802008600098039909684860039898
:102440008068402809D1FFE70198039909688860EE
:10245000029803990968C86008E00298039909681E
:102460008860019803990968C860FFE704B0704765
:1024700080B582B001904EF6FC51CEF200010868A2
:1024800040F08070086041F20401CEF200010020AB
:10249000086041F20002CEF20002116841F0010131
:1024A0001160019944F24022C0F20F024A4340F207
:1024B000C851C2F200010A600A6844F6D353C1F25F
:1024C0006203A2FB0332920940F2CC53C2F2000332
:1024D0001A6009684DF68362C4F21B32A1FB022127
:1024E000890C40F2D052C2F20002116040F2E45175
:1024F000C2F20001086000F005F802B080BD0000E3
:102500007047000081B040F2F050C2F20000007845
:1025100070BBFFE740F2F051C2F2000101200870E9
:1025200041F20400CEF2000000680090009840F2F2
:10253000E051C2F200010968884208D2FFE740F288
:10254000E451C2F20001086801300860FFE741F27F
:102550000400CEF20000006840F2E051C2F2000137
:10256000086040F2F051C2F2000100200870FFE75D
:1025700001B0704783B08DED020A41F20400CEF243
:1025800000000068019002980090FFE741F204000B
:10259000CEF2000000680199401A00EE100AB8EE71
:1025A000400A9DED001A40F2C850C2F2000090EDC2
:1025B000002AB8EE422A21EE021AB4EE410AF1EEE8
:1025C00010FA01DAFFE7E1E703B0704780B584B0A5
:1025D000039041F20400CEF20000006802900298DD
:1025E00003990968401A00EE100AB8EE400A40F25A
:1025F000C850C2F2000090ED001AB8EE411A80EE09
:10260000010A8DED010A029803990860FFF77AFF2D
:102610009DED010A04B080BD80B582B000F028F8BD
:1026200040F6EC00C2F2000090ED000AB8EE401A4D
:10263000818800EE101AB8EEC00A9FED0B2A20EE3A
:10264000020A30EE011AC08800EE100AB8EEC00A85
:102650009FED062A20EE020A30EE010A8DED010AF6
:102660009DED010A02B080BD6F12833ABD378635F9
:10267000B0B586B041F20400CEF2000000680590CB
:10268000FFF740FF40F2E450C2F2000001680598F5
:10269000002302934FF0FF3C1A46E1FB0C0240F28C
:1026A000D851C2F2000100914A6008600868496888
:1026B00040F2C854C2F200042268FDF765FE029B96
:1026C00002468C46009940F2F850C2F20000C0F871
:1026D00004C00260D1F800C04968D0F800E0426848
:1026E0002468AEFB04E502FB0452BCEB0E0C61EB6C
:1026F000020240F20061C2F200010391C1F800C081
:102700004A60006840F6EC02C2F2000204921060D7
:102710000868496840F2CC52C2F200020192126885
:10272000FDF732FEDDF804C0029B049A01460398CF
:102730009180016840689288DCF800C002FB0CF2CE
:102740008A1A60F1000040F20861C2F200010A60DA
:1027500048600868496840F2D052C2F2000212682C
:10276000FDF712FE0499C88006B0B0BD80B5082000
:1027700001F002FC80BD000080B584B002900191A0
:10278000029818B1FFE7019820B9FFE700208DF803
:102790000F0030E0029806F071FF70B1FFE7029978
:1027A0008888431C0A89B3FBF2F000FB1230888052
:1027B0000299888901388881FFE702990A68C888E8
:1027C000498900FB0120009000980199029A5289E2
:1027D000FDF782FE0299C888431C0A89B3FBF2F018
:1027E00000FB1230C880029988890130888101205D
:1027F0008DF80F00FFE79DF80F0004B080BD0000CA
:1028000072B6FFE7FEE7000080B584B047F61020FF
:10281000C1F6FF700068039047F61420C1F6FF7000
:102820000068029047F61820C1F6FF70006801901A
:102830000199039808440390039888B1FFE703982F
:1028400040F2F421C2F2000100910231082206F0A8
:10285000D7FE009902981231042206F0D1FEFFE75C
:1028600004B080BD84B002900191029890F82000DD
:102870008DF803009DF80300012805D0FFE79DF8BF
:10288000030002280AD1FFE7019A0298016848690B
:102890001043486100208DF80F0008E00299486A53
:1028A00040F48020486201208DF80F00FFE79DF87A
:1028B0000F0004B07047000088B0069005910492A4
:1028C0000393069890F820008DF80700069800689A
:1028D000806800900598806808B9FFE700E0FFE78E
:1028E0009DF80700012806D0FFE79DF807000228A1
:1028F00040F08080FFE79DF80300400700280CD4DB
:10290000FFE79DF803000007002806D4FFE79DF8C5
:102910000300C006002864D5FFE70098C0F30160FB
:102920000290029901208840039908600598806808
:1029300068B9FFE705980168C06840EA4150069908
:102940000968029A01EB0211C1F880010EE00599B5
:102950004A688868C96840EAC2000843069909685D
:10296000029A01EB0211C1F88001FFE705980069A6
:1029700006990968029A01EB0211C1F884010598D1
:10298000007D01280CD1FFE706980068029900EB52
:102990000111D1F8840140F48070C1F88401FFE78F
:1029A0000498406806990968029A01EB0211C1F87F
:1029B0008C010498006806990968029A01EB0211DB
:1029C000C1F8880106980068029900EB0111D1F85E
:1029D000800140F00100C1F8800100208DF81F0047
:1029E00011E00699486A40F40010486201208DF811
:1029F0001F0008E00699486A40F4802048620120E0
:102A00008DF81F00FFE79DF81F0008B07047000019
:102A100086B004900391049890F820008DF803008C
:102A20009DF80300012806D0FFE79DF80300022867
:102A300040F0B080FFE746F20040C4F20000019091
:102A40000199D1F8000240F00100C1F8000201999B
:102A5000D1F8000220F47C50C1F800020398426AC9
:102A60000199D1F8000240EA0220C1F8000203985F
:102A7000406900F01F01012088400290029A0199EC
:102A8000D1F81C029043C1F81C020398C069F0B948
:102A9000FFE7029A0199D1F80C029043C1F80C02A9
:102AA000039A9088D168526940EA0140019901EB8C
:102AB000C201C1F84002039A10889168526940EA45
:102AC0000140019901EBC201C1F84402FFE70398FC
:102AD000C06901281ED1FFE7029A0199D1F80C02C2
:102AE0001043C1F80C02039A90881168526940EAB9
:102AF0000140019901EBC201C1F84002039A90899B
:102B00009168526940EA0140019901EBC201C1F8A4
:102B10004402FFE70398806940B9FFE7029A0199F0
:102B2000D1F804029043C1F8040207E0029A019927
:102B3000D1F804021043C1F80402FFE703980069CA
:102B400040B9FFE7029A0199D1F814029043C1F805
:102B5000140207E0029A0199D1F814021043C1F857
:102B60001402FFE70398006A012808D1FFE7029AE0
:102B70000199D1F81C021043C1F81C02FFE701992A
:102B8000D1F8000220F00100C1F8000200208DF809
:102B9000170008E00499486A40F480204862012048
:102BA0008DF81700FFE79DF8170006B0704700008A
:102BB00081B0009001B0704784B003900291002072
:102BC0000190039890F820008DF803009DF8030011
:102BD000012805D0FFE79DF80300022812D1FFE786
:102BE000029838B9FFE703980068C06800F0030056
:102BF000019006E003980068006900F0030001906E
:102C0000FFE7FFE7019804B07047000086B004902A
:102C1000039102920193049890F820008DF803002C
:102C20009DF80300012806D0FFE79DF80300022865
:102C300040F0E880FFE7039880B9FFE70498006858
:102C4000C068800748B9FFE70499486A40F400105B
:102C5000486201208DF81700DDE00FE0049800685D
:102C60000069800748B9FFE70499486A40F40010FA
:102C7000486201208DF81700CDE0FFE70498006856
:102C8000039900EB0110D0F8B00100F004000299A4
:102C900088600298806858B9FFE704980068039933
:102CA00000EB0110D0F8B001400D029908600AE075
:102CB00004980068039900EB0110D0F8B001C00837
:102CC00002994860FFE704980068039900EB01103F
:102CD000D0F8B00100F002000299C86004980068C2
:102CE000039900EB0110D0F8B40100F00F000828A0
:102CF00004D3FFE70299082008610BE004980068FC
:102D0000039900EB0110D0F8B40100F00F00029914
:102D10000861FFE704980068039900EB0110D0F800
:102D2000B40180B2000A029988610498006803998E
:102D300000EB0110D0F8B401000C0299486104982E
:102D40000068039900EB0110D0F8B80101990870F0
:102D500004980068039900EB0110D0F8B801000A4C
:102D60000199487004980068039900EB0110D0F8AD
:102D7000B801000C0199887004980068039900EB71
:102D80000110D0F8B801000E0199C87004980068CD
:102D9000039900EB0110D0F8BC0101990871049867
:102DA0000068039900EB0110D0F8BC01000A0199FA
:102DB000487104980068039900EB0110D0F8BC0139
:102DC000000C0199887104980068039900EB0110C8
:102DD000D0F8BC01000E0199C871039838B9FFE71B
:102DE00004980168C86840F02000C86006E00498B4
:102DF0000168086940F020000861FFE700208DF8B5
:102E0000170008E00499486A40F4802048620120D5
:102E10008DF81700FFE79DF8170006B07047000017
:102E200083B0029000200190029890F820008DF865
:102E300003009DF80300012805D0FFE79DF803007B
:102E4000022822D1FFE7029800688068400100282C
:102E500004D5FFE7019801300190FFE70298006870
:102E600080680001002804D5FFE701980130019037
:102E7000FFE7029800688068C000002804D5FFE7DB
:102E8000019801300190FFE7FFE7019803B0704718
:102E900080B58AB0099000200890099800684069C0
:102EA0000790099800684068069009980068806853
:102EB000059009980068C068049009980068006946
:102EC000039009980068806902909DF81C00C00773
:102ED000002800F09480FFE79DF81400C00758B365
:102EE000FFE709980168012088609DF814008007B9
:102EF000002804D5FFE7099800F094FC1BE09DF83A
:102F000014004007002805D5FFE7089840F400604A
:102F100008900FE09DF814000007002805D5FFE792
:102F2000089840F48050089003E0099800F076FC7F
:102F3000FFE7FFE7FFE7FFE79DF81500C00760B375
:102F4000FFE7099801684FF4807088609DF81500CC
:102F50008007002804D5FFE7099800F06BFC1BE010
:102F60009DF815004007002805D5FFE7089840F4B4
:102F7000005008900FE09DF815000007002805D5C7
:102F8000FFE7089840F48040089003E0099800F0BB
:102F90004DFCFFE7FFE7FFE7FFE79DF81600C007DE
:102FA00060B3FFE7099801684FF4803088609DF8AE
:102FB00016008007002804D5FFE7099800F042FCBE
:102FC0001BE09DF816004007002805D5FFE708988C
:102FD00040F4004008900FE09DF81600000700281C
:102FE00005D5FFE7089840F48030089003E0099881
:102FF00000F024FCFFE7FFE7FFE7FFE7FFE79DF8AE
:103000001C000007002810D5FFE79DF81000C0063F
:10301000002809D5FFE7089840F400700890099847
:1030200001681020C860FFE7FFE79DF81C0040071B
:1030300000280FD5FFE79DF810000007002808D5ED
:10304000FFE7099801680820C860099800F0CCFAE9
:10305000FFE7FFE79DF81C00800700280BD5FFE77E
:1030600009980068C068800720B1FFE7099800F060
:10307000BFFAFFE7FFE79DF81C004006002810D5C7
:10308000FFE79DF80C00C006002809D5FFE7089867
:1030900040F4806008900998016810200861FFE7FB
:1030A000FFE79DF81C00800600280FD5FFE79DF87C
:1030B0000C000007002808D5FFE7099801680820E0
:1030C0000861099800F0F8FAFFE7FFE79DF81C0097
:1030D000C00600280BD5FFE7099800680069800743
:1030E00020B1FFE7099800F0EBFAFFE7FFE79DF852
:1030F0001E00800700280FD5FFE79DF81800C006C6
:10310000002808D5FFE70998016810204860099851
:1031100000F03AFBFFE7FFE79DF81E00C00778B11B
:10312000FFE79DF818000007002808D5FFE7099879
:10313000016808204860099800F088FBFFE7FFE776
:103140009DF81D000006002840F18D80FFE79DF8E6
:1031500018004007002840F18180FFE79DF81D001E
:10316000C00750B1FFE79DF80800C00728B1FFE78E
:10317000089840F001000890FFE79DF81D008007C7
:1031800000280BD5FFE79DF808008007002805D52B
:10319000FFE7089840F002000890FFE79DF81D0047
:1031A000400700280BD5FFE79DF8080040070028DE
:1031B00005D5FFE7089840F004000890FFE79DF868
:1031C0001D000007002848D5FFE79DF8080010F013
:1031D000700F42D0FFE7029800F0700001460191A5
:1031E000102814D0FFE70198202815D0FFE7019898
:1031F000302816D0FFE70198402817D0FFE7019844
:10320000502818D0FFE70198602819D01DE00898D1
:1032100040F00800089019E0089840F0100008906D
:1032200014E0089840F0200008900FE0089840F063
:10323000400008900AE0089840F08000089005E0FF
:10324000089840F48070089000E0FFE70998016852
:10325000886920F070008861FFE7FFE7099801683E
:1032600004204860FFE7089848B1FFE7089A0999E9
:10327000486A104348620998FFF79AFCFFE70AB0D2
:1032800080BD000080B584B00290029820B9FFE7AD
:1032900001208DF80F00E0E0029890F8200020B99E
:1032A000FFE7029800F0DEF8FFE70298016808687F
:1032B00040F00100086001F087F80190FFE70298F4
:1032C00000684068C007A8B9FFE701F07DF80199E0
:1032D000401A0B280DD3FFE70299486A40F40030EA
:1032E00048620299052081F8200001208DF80F0026
:1032F000B3E0E4E702980168086820F00200086083
:1033000001F062F80190FFE70298006840688007CA
:10331000002815D5FFE701F057F80199401A0B284E
:103320000DD3FFE70299486A40F4003048620299E1
:10333000052081F8200001208DF80F008DE0E3E7E3
:103340000298007E012807D1FFE70298016808680B
:1033500040F08000086006E002980168086820F0EC
:1033600080000860FFE70298407E012807D1FFE750
:1033700002980168086840F04000086006E0029882
:103380000168086820F040000860FFE70298807E2E
:10339000012807D1FFE702980168086840F0200083
:1033A000086006E002980168086820F020000860C4
:1033B000FFE70298C07E012807D1FFE70298016865
:1033C000086820F01000086006E0029801680868AC
:1033D00040F010000860FFE70298007F012807D145
:1033E000FFE702980168086840F00800086006E0FE
:1033F00002980168086820F008000860FFE702985A
:10340000407F012807D1FFE702980168086840F073
:103410000400086006E002980168086820F00400D3
:103420000860FFE7029B19685A689868D3F80CC0D7
:1034300040EA0C00D3F810C040EA0C005B69184366
:10344000013A1043C861029900204862029A0121A2
:1034500082F820108DF80F00FFE79DF80F0004B0F0
:1034600080BD000080B590B00F9000200E900D90B0
:103470000C900B900A900F98006846F20041C4F23D
:103480000001884249D1FFE740F21460C2F2000017
:103490000168013101600068012812D1FFE7FFE7F0
:1034A0000020099043F64000C4F20200016841F098
:1034B00000710160006800F0007009900998FFE752
:1034C000FFE7FFE70020089043F63000C4F2020057
:1034D000016841F008010160006800F008000890F0
:1034E0000898FFE703200A9002210B910021039125
:1034F0000C910D9009200E9040F60040C4F202009D
:103500000AA900F055FD039A14200490052101F04A
:10351000FFF9049801F0F2F964E00F98006846F6AC
:103520000001C4F2000188425BD1FFE7FFE7002001
:10353000079043F64000C4F20200016841F0806148
:103540000160006800F0806007900798FFE740F294
:103550001460C2F2000001680131016000680128B6
:1035600012D1FFE7FFE70020069043F64000C4F2C7
:103570000200016841F000710160006800F0007015
:1035800006900698FFE7FFE7FFE70020059043F667
:103590003000C4F20200016841F0020101600068DD
:1035A00000F0020005900598FFE760200A900220D5
:1035B0000B90002001900C9003200D9009200E909C
:1035C00040F20040C4F202000AA900F0F1FC019AA6
:1035D00041200290052101F09BF9029801F08EF93B
:1035E000FFE7FFE710B080BD81B0009001B07047E9
:1035F00080B584B0039003980021FFF7DDFA8DF8C1
:103600000B009DF80B00072819DBFFE79DF80B0066
:103610004AF6A932C0F6010269464A6008604AF6D5
:10362000ED41C0F601014AF6BE32C0F601024AF68B
:10363000A633C0F60103002009F0BCFDFFE70398A4
:1036400040F28052C2F2000202F11C030021FFF797
:10365000DDFA039842F23851C2F20001884210D1DB
:10366000FFE742F22420C2F20000017840F28050CD
:10367000C2F2000042F2E412C2F2000210F0DAF8E4
:10368000FFE7039842F26051C2F20001884210D174
:10369000FFE742F22520C2F20000017840F280509C
:1036A000C2F2000042F20422C2F2000210F0C2F89C
:1036B000FFE704B080BD000081B0009001B070470A
:1036C00080B584B0039003980121FFF775FA8DF857
:1036D0000B009DF80B00072819DBFFE79DF80B0096
:1036E0004AF6A932C0F6010269464A6008604AF605
:1036F0001451C0F601014AF6BE32C0F601024AF684
:10370000A633C0F60103002009F054FDFFE703983B
:1037100040F2A452C2F2000202F11C030121FFF7A1
:1037200075FA039842F23851C2F20001884210D172
:10373000FFE742F22420C2F20000017840F2A450D8
:10374000C2F2000042F2E412C2F2000210F072F87B
:10375000FFE7039842F26051C2F20001884210D1A3
:10376000FFE742F22520C2F20000017840F2A450A7
:10377000C2F2000042F20422C2F2000210F05AF833
:10378000FFE704B080BD000081B0009001B0704739
:1037900080B584B00290029890F8200001282FD1C3
:1037A000FFE70299022081F820000298016808686A
:1037B00020F00100086000F007FE0190FFE702988A
:1037C00000684068C007A8B1FFE700F0FDFD01995F
:1037D000401A0B280DD3FFE70299486A40F40030E5
:1037E00048620299052081F8200001208DF80F0021
:1037F0000FE0E4E70299002048628DF80F0008E02E
:103800000299486A40F40020486201208DF80F00B8
:10381000FFE79DF80F0004B080BD000081B000906C
:1038200001B0704781B0009001B0704781B0009046
:1038300001B0704781B0009001B0704781B0009036
:1038400001B0704781B0009001B0704781B0009026
:1038500001B0704780B584B002900298806D0190ED
:1038600000F0B2FD0090029890F8350002280DD0CB
:10387000FFE7029980204865FFE70299002081F860
:103880003400FFE701208DF80F0055E00298016831
:10389000086820F01600086002980168486920F066
:1038A000800048610298006C20B9FFE70298806CA4
:1038B00038B1FFE702980168086820F00800086046
:1038C000FFE702980168086820F001000860FFE740
:1038D000029800680068C007C8B1FFE700F074FDF7
:1038E0000099401A062811D3FFE702992020486565
:1038F0000299032081F83500FFE70299002081F842
:103900003400FFE703208DF80F0015E0E0E7029890
:10391000C16D3F208840019988600299012081F89B
:103920003500FFE70299002081F83400FFE7FFE748
:1039300000208DF80F00FFE79DF80F0004B080BD58
:1039400082B00090009890F83500022807D0FFE779
:1039500000998020486501208DF807000EE000994D
:10396000052081F8350000980168086820F0010002
:103970000860FFE700208DF80700FFE79DF80700CB
:1039800002B0704780B586B005900020039040F2E9
:10399000C810C2F20000006848F2B511C1F64E31FD
:1039A000A0FB0110800A02900598806D019001989B
:1039B0000068049004980599C96DC8400007002864
:1039C0001AD5FFE70598006800684007002812D55F
:1039D000FFE705980168086820F004000860059872
:1039E000C16D08208840019988600599486D40F0B4
:1039F00001004865FFE7FFE704980599C96DC840D5
:103A0000C007A0B1FFE705980068406900060028DC
:103A10000CD5FFE70598C16D0120884001998860A9
:103A20000599486D40F002004865FFE7FFE70498FC
:103A30000599C96DC8404007002814D5FFE70598CF
:103A400000680068800700280CD5FFE70598C16D65
:103A500004208840019988600599486D40F0040071
:103A60004865FFE7FFE704980599C96DC840C0069F
:103A7000002847D5FFE70598006800680007002880
:103A80003FD5FFE70598C16D1020884001998860F7
:103A9000059800680068400300281AD5FFE70598DC
:103AA000006800680003002809D4FFE70598006C4F
:103AB00020B1FFE70598016C8847FFE708E005980B
:103AC000806C20B1FFE70598816C8847FFE7FFE72E
:103AD00016E0059800680068C005002807D4FFE7D5
:103AE00005980168086820F008000860FFE705985D
:103AF000006C20B1FFE70598016C8847FFE7FFE7FE
:103B0000FFE7FFE704980599C96DC84080060028C3
:103B100040F18D80FFE7059800680068C006002826
:103B200040F18480FFE70598C16D2020884001990D
:103B30008860059890F83500052834D1FFE705988E
:103B40000168086820F01600086005980168486957
:103B500020F0800048610598006C20B9FFE70598C7
:103B6000806C38B1FFE705980168086820F008000C
:103B70000860FFE70598C16D3F2088400199886083
:103B80000599012081F83500FFE70599002081F8AB
:103B90003400FFE70598006D20B1FFE70598016D3F
:103BA0008847FFE77BE0059800680068400300282D
:103BB0001AD5FFE70598006800680003002809D4BB
:103BC000FFE70598406C20B1FFE70598416C8847F6
:103BD000FFE708E00598C06B20B1FFE70598C16BCF
:103BE0008847FFE7FFE720E0059800680068C00508
:103BF000002811D4FFE705980168086820F010003C
:103C000008600599012081F83500FFE7059900203B
:103C100081F83400FFE7FFE70598C06B20B1FFE7AC
:103C20000598C16B8847FFE7FFE7FFE7FFE70598C7
:103C3000406DA0B3FFE70598406DC00730B3FFE7C4
:103C40000599052081F8350005980168086820F07D
:103C500001000860FFE70398013003900299884251
:103C600001D9FFE707E0FFE7059800680068C00793
:103C70000028F0D1FFE70599012081F83500FFE722
:103C80000599002081F83400FFE7FFE70598C06C34
:103C900020B1FFE70598C16C8847FFE7FFE706B052
:103CA00080BD000080B586B004900020039000F035
:103CB0008BFB0290049820B9FFE701208DF81700D4
:103CC000A3E00498406A08B1FFE7FFE704990220E7
:103CD00081F83500FFE70499002081F83400FFE700
:103CE00004980168086820F001000860FFE7049864
:103CF00000680068C00790B1FFE700F065FB02991B
:103D0000401A06280AD3FFE7049920204865049941
:103D1000032081F835008DF8170076E0E7E7049876
:103D2000006800680390039848F23F01CFF2100149
:103D300008400390049900914868D1F808C0CB6806
:103D40000A6940EA0C00184310434A6910438A6923
:103D50001043CA691043096A01430398084303905A
:103D60000498406A042808D1FFE70499C86A096BDF
:103D70000143039808430390FFE7039804990968F7
:103D800008600498006840690390039820F00700D9
:103D900003900498416A0398084303900498406A8A
:103DA00004281AD1FFE70498816A03980843039016
:103DB0000498C06A80B1FFE70498FEF7B9FA50B1E1
:103DC000FFE70499402048650499012081F83500F7
:103DD0008DF8170019E0FFE7FFE7039804990968D9
:103DE00048610498FEF778FA01900498C16D3F206D
:103DF000884001998860049900204865049A01214F
:103E000082F835108DF81700FFE79DF8170006B00F
:103E100080BD000080B588B00690059104920393A0
:103E200000208DF80B000698806D0190FFE7069842
:103E300090F83400012804D1FFE702208DF81F001C
:103E400045E00699012081F83400FFE7FFE7069876
:103E500090F8350001282BD1FFE70699022081F860
:103E6000350006990020486506980599049A039B39
:103E7000FEF7D6FA0698C16D3F2088400199886008
:103E800006980168086840F0160008600698006C03
:103E900038B1FFE706980168086840F0080008603C
:103EA000FFE706980168086840F00100086009E033
:103EB000FFE70699002081F83400FFE702208DF823
:103EC0000B00FFE79DF80B008DF81F00FFE79DF842
:103ED0001F0008B080BD000080B584B0039000F0E2
:103EE00073FA0290039801900198013048B1FFE7FE
:103EF00040F21050C2F2000001780198084401908D
:103F0000FFE7FFE700F060FA0299401A0199884242
:103F100001D2FFE7F6E704B080BD000080B584B0B1
:103F2000ADF80E0000200190FFE7019842F68F5196
:103F3000C2F20001097888421CD2FFE7019942F2DF
:103F40003420C2F2000050F8210002900298C0888C
:103F5000BDF80E10884208D1FFE70298806820B1B2
:103F6000FFE702988168884704E0FFE70198013085
:103F70000190DAE704B080BD80B582B0ADF80600EC
:103F800043F61440C4F201000068BDF80610084270
:103F90000CD0FFE7BDF8060043F61441C4F201015E
:103FA0000860BDF80600FFF7B9FFFFE702B080BD6B
:103FB0008EB00D900C9100200A90099008900B9003
:103FC000FFE70B980F2800F2CC81FFE70B99012047
:103FD00088400A900C9800680A990840099009984E
:103FE0000A99884240F0B881FFE70C98406800F0D9
:103FF0000300012807D0FFE70C98406800F0030099
:1040000002282FD1FFE70D98806808900B98410097
:10401000032000FA01F10898884308900C98C068C2
:104020000B99490000FA01F1089808430890089894
:104030000D9988600D98406808900B99012000FA4E
:1040400001F10898884308900C984068C0F300106C
:104050000B9900FA01F108980843089008980D9907
:104060004860FFE70C98406800F00300032818D070
:10407000FFE70D98C06808900B984100032000FAF4
:1040800001F10898884308900C9880680B994900C2
:1040900000FA01F108980843089008980D99C86043
:1040A000FFE70C98406800F00300022826D1FFE7E4
:1040B0000D980B996FF0030202EA51010844006A5F
:1040C00008900B9800F0070081000F2000FA01F122
:1040D0000898884308900C9800690B9901F0070133
:1040E000890000FA01F108980843089008980D9992
:1040F0000B9B02EA530211440862FFE70D98006827
:1041000008900B984100032000FA01F108988843B9
:1041100008900C98406800F003000B99490000FAE1
:1041200001F108980843089008980D9908600C98C8
:1041300080798007002800F00E81FFE7FFE700206C
:10414000079043F64400C4F20200016841F4804144
:104150000160006800F4804007900798FFE70B9823
:1041600020F0030043F60801C4F201014058089012
:104170000B9800F0030081000F2000FA01F108986D
:10418000884308900D980021C4F20201884203D1AF
:10419000FFE7002006905EE00D9840F20041C4F277
:1041A0000201884203D1FFE70120059050E00D98FD
:1041B00040F60001C4F20201884203D1FFE7022069
:1041C000049042E00D9840F60041C4F2020188429A
:1041D00003D1FFE70320039034E00D9841F2000182
:1041E000C4F20201884203D1FFE70420029026E0D6
:1041F0000D9841F20041C4F20201884203D1FFE769
:104200000520019018E00D9841F60001C4F202016A
:10421000884203D1FFE7062000900AE00D9941F69D
:104220000042C4F202020820914208BF0720009019
:10423000FFE700980190FFE701980290FFE70298DE
:104240000390FFE703980490FFE704980590FFE7C9
:1042500005980690FFE70698C0B20B9901F003019C
:10426000890000FA01F108980843089008980B9912
:1042700021F0030143F60802C4F20102885043F61C
:104280000840C4F201000068089009990898884322
:1042900008900C988079C006002805D5FFE7099999
:1042A000089808430890FFE7089843F60841C4F2CD
:1042B0000101086043F60C40C4F201000068089058
:1042C00009990898884308900C98807980060028FE
:1042D00005D5FFE70999089808430890FFE7089873
:1042E00043F60C41C4F20101086043F60440C4F2F5
:1042F00001000068089009990898884308900C9874
:1043000080798007002805D5FFE7099908980843B8
:104310000890FFE7089843F60441C4F201010860E1
:1043200043F60040C4F2010000680890099908981B
:10433000884308900C988079C00728B1FFE7099955
:10434000089808430890FFE7089843F60041C4F234
:1043500001010860FFE7FFE7FFE70B9801300B90D2
:104360002FE60EB07047000082B00190ADF8021049
:1043700001980069BDF80210084204D0FFE701204F
:104380008DF8010003E000208DF80100FFE79DF8A3
:10439000010002B07047000082B00190ADF8021039
:1043A0008DF801209DF8010028B1FFE7BDF802005B
:1043B0000199886105E0BDF8020000040199886157
:1043C000FFE702B07047000046F62C40C2F2000042
:1043D0000068704780B58EB00C900C9820B9FFE74C
:1043E00001208DF8370043E10C9890F83D0040B96A
:1043F000FFE70C99002081F83C000C9800F03CF994
:10440000FFE70C99242081F83D000C9801680868AA
:1044100020F0010008600C980168086840F4004032
:1044200008600C980168086820F40040086001F0FA
:1044300067FD0A900C98406848F2A061C0F2010143
:1044400088420BD8FFE70A9948F28042C0F21E0268
:104450000020914238BF012009900AE00A9940F6F5
:104460000012C0F23D020020914238BF01200990A5
:10447000FFE70998012804D1FFE701208DF83700F4
:10448000F6E00A984DF68361C4F21B31A0FB0110DF
:10449000800C0B900C980068406820F03F000B994E
:1044A00008430C99096848600C980068006A20F07D
:1044B0003F0008900C98406848F2A061C0F20101EA
:1044C000884204D8FFE70B98013007900EE00B9864
:1044D0004FF49671484344F6D351C1F26201A0FBF8
:1044E0000101012000EB91100790FFE70898079960
:1044F00008430C99096808620C980068C0694CF67A
:10450000FF71884306900C98406848F2A061C0F2A1
:10451000010188421FD8FFE70A9801380C994968C1
:104520004900B0FBF1F001306FF31F30032803D8CE
:10453000FFE7042005900BE00A9801380C994968C0
:104540004900B0FBF1F001306FF31F300590FFE739
:10455000059804904CE00C98806868B9FFE70A98C9
:1045600001380C99496801EB4101B0FBF1F00130D1
:104570006FF31F3003900DE00A9801380C994968D9
:1045800019225143B0FBF1F00130042161F31F30D7
:104590000390FFE70398000518B9FFE70120029098
:1045A00023E00C98806868B9FFE70A9801380C99F5
:1045B000496801EB4101B0FBF1F001306FF31F30AE
:1045C00001900DE00A9801380C994968192251436D
:1045D000B0FBF1F00130042161F31F300190FFE7DF
:1045E000019840F400400290FFE702980490FFE732
:1045F0000698049908430C990968C8610C980068EA
:10460000006820F0C0000C9B1968DA691B6A1A4325
:10461000104308600C980068806848F2FF318843B6
:104620000C9A1168D36812691A43104388600C9879
:104630000068C06820F0FF000C9B19685A699B69EC
:104640001A431043C8600C980168086840F00100E4
:1046500008600C99002008640C9A202182F83D1013
:104660000C9908630C9981F83E008DF83700FFE73C
:104670009DF837000EB080BD80B58EB00D90002043
:104680000C900B900A90099008900D98006845F6E0
:104690000041C4F2000188425FD1FFE7FFE700203C
:1046A000079043F63000C4F20200016841F00401B3
:1046B0000160006800F0040007900798FFE7FFE73B
:1046C0000020069043F63000C4F20200016841F079
:1046D00001010160006800F0010006900698FFE704
:1046E0004FF4007008901220009009900020019073
:1046F0000A90032002900B90042003900C9040F647
:104700000000C4F2020008A90491FFF751FCDDF893
:1047100000C0019B029A039804994FF4807ECDF863
:1047200020E0CDF824C00A930B920C900020C4F234
:104730000200FFF73DFCFFE70020059043F6400034
:10474000C4F20200016841F400010160006800F455
:10475000000005900598FFE7FFE70EB080BD000060
:1047600040F21050C2F20000027846F62C41C2F22C
:1047700000010868104408607047000080B543F6E7
:104780000041C4F20201086840F400700860086843
:1047900040F480600860086840F48070086003207E
:1047A00000F0D0F80F2000F005F800F07BF80020B2
:1047B00080BD000080B58CB00B9000200490039069
:1047C000FFE70020009043F64000C4F202000168B9
:1047D00041F480710160006800F4807000900098DE
:1047E000FFE706A802A901F05BFB09980490049872
:1047F00020B9FFE701F084FB059004E001F080FBA5
:1048000040000590FFE705984DF68361C4F21B3127
:10481000A0FB01014FF0FF3000EB9140039042F606
:104820002440C2F2000042F20001C4F20001016023
:1048300040F2E731C160039941600021016181606C
:10484000816102F07FFF8DF807009DF8070028BB0B
:10485000FFE742F62440C2F2000003F029F88DF889
:1048600007009DF80700C0B9FFE72D2000F046F8CB
:104870000B980F280CD8FFE70B992D20002200F091
:1048800047F80B9840F21451C2F20001086003E0AF
:1048900001208DF80700FFE7FFE7FFE79DF807001D
:1048A0000CB080BD80B582B0FFE70020019043F6D8
:1048B0004400C4F20200016841F4804101600068D4
:1048C00000F4804001900198FFE7FFE7002000908E
:1048D00043F64000C4F20200016841F080510160DB
:1048E000006800F0805000900098FFE76FF0010032
:1048F0000F21002200F00CF802B080BD80B582B01C
:104900008DF807009DF907000FF0FAFB02B080BD9B
:1049100080B586B08DF817000491039200200290B4
:104920000FF006FC02909DF917000190029804997F
:10493000039A07F08FFC014601980FF001FC06B0C6
:1049400080BD000080B582B0019001980FF01AFC84
:1049500002B080BD82B001908DF8031002B07047A4
:1049600082B00190ADF80210BDF80200019909680B
:104970004862002002B0704784B003908DF80B109D
:10498000ADF8082003980068406A00909DF80B007D
:1049900048B9FFE7BDF80810009840EA01400399C4
:1049A0000968886233E003980068816A009800EB28
:1049B0001140009000208DF80700FFE79DF80700E8
:1049C0009DF80B100139884213D2FFE70398006865
:1049D0009DF8071000EB8100D0F80411009800EB5F
:1049E00011400090FFE79DF8070001308DF80700A7
:1049F000E4E7BDF80810009840EA0140039909680F
:104A00009DF80B2001EB8201C1F80001FFE70020B7
:104A100004B0704780B582B001900198D0F8E004EE
:104A20000CF0B0FD02B080BD80B582B001908DF871
:104A30000310019AD2F8E0049DF8031001EBC103C2
:104A400002EB8302126A0CF0F1FB02B080BD0000A1
:104A500080B582B001908DF80310019AD2F8E0047D
:104A60009DF8031001EBC10302EB8302D2F8602230
:104A70000CF0AAFC02B080BD80B582B00190019814
:104A8000D0F8E0040CF084FD02B080BD80B584B0A5
:104A900003908DF80B109DF80B00000600280CD534
:104AA000FFE703989DF80B1001F00F0101EBC10126
:104AB00000EB8100143001900CE003989DF80B107E
:104AC00001F00F0101EBC10100EB810000F5157051
:104AD0000190FFE70398006801990EF0E3FA8DF862
:104AE0000A009DF80A0004B080BD000080B584B0C3
:104AF00002908DF807109DF80700000600280FD5DA
:104B0000FFE702989DF8071001F00F0101EBC101CA
:104B100000EB8100143000900099012048700FE0F4
:104B200002989DF8071001F00F0101EBC10100EBA5
:104B3000810000F515700090009900204870FFE793
:104B40009DF8070000F00F0000990870FFE7029839
:104B500090F89404012804D1FFE702208DF80F009B
:104B600014E00299012081F89404FFE7FFE702981E
:104B7000006800990DF086FDFFE70299002081F89A
:104B80009404FFE700208DF80F00FFE79DF80F0069
:104B900004B080BD80B584B002908DF807109DF8F8
:104BA000070000F00F0002990979884204D9FFE755
:104BB00001208DF80F004DE09DF807000006002849
:104BC0000FD5FFE702989DF8071001F00F0101EBE8
:104BD000C10100EB81001430009000990120487061
:104BE0000FE002989DF8071001F00F0101EBC101E1
:104BF00000EB810000F515700090009900204870CE
:104C0000FFE70099002088709DF8070000F00F0072
:104C100000990870FFE7029890F89404012804D1E5
:104C2000FFE702208DF80F0014E00299012081F8BF
:104C30009404FFE7FFE70298006800990DF092FFE7
:104C4000FFE70299002081F89404FFE700208DF827
:104C50000F00FFE79DF80F0004B080BD82B0019007
:104C60008DF8031001989DF8031001F00F0101EB7E
:104C7000C10100EB8100D0F8680202B0704700006B
:104C800080B586B004908DF80F10ADF80C208DF82B
:104C90000B3000208DF80A009DF80F000006002858
:104CA0000FD5FFE704989DF80F1001F00F0101EBFD
:104CB000C10100EB8100143001900199012048707E
:104CC0000FE004989DF80F1001F00F0101EBC101F6
:104CD00000EB810000F515700190019900204870EB
:104CE000FFE79DF80F0000F00F0001990870BDF874
:104CF0000C006FF3DF20019988609DF80B0001998B
:104D000008710198407820B1FFE70199087848833D
:104D1000FFE79DF80B00022804D1FFE7019900206E
:104D20004871FFE7FFE7049890F89404012804D144
:104D3000FFE702208DF8170015E00499012081F8A3
:104D40009404FFE7FFE70498006801990DF064FB05
:104D5000FFE70499002081F89404FFE79DF80A001A
:104D60008DF81700FFE79DF8170006B080BD000022
:104D700080B586B005908DF81310039202930598C4
:104D80009DF8131001F00F0101EBC10100EB810050
:104D900000F51570019003980199C8600298019977
:104DA0000861019900204861019948709DF813003D
:104DB00000F00F000199087005988079012804D14E
:104DC000FFE703980199C861FFE7059A1068019908
:104DD00092790DF06BFF002006B080BD80B584B0E5
:104DE00002908DF807109DF8070000F00F0002995F
:104DF0000979884204D9FFE701208DF80F0058E0B7
:104E00009DF80700000600280FD5FFE702989DF8DF
:104E1000071001F00F0101EBC10100EB810014301C
:104E200000900099012048700DE002989DF807104D
:104E300001EBC10100EB810000F5157000900099B5
:104E400000204870FFE70099012088709DF8070056
:104E500000F00F0000990870FFE7029890F89404A2
:104E6000012804D1FFE702208DF80F0021E002990C
:104E7000012081F89404FFE7FFE702980068009999
:104E80000DF0C0FE9DF80700000740B9FFE7029A49
:104E90001068917902F29C420DF014FEFFE7FFE7E3
:104EA0000299002081F89404FFE700208DF80F009C
:104EB000FFE79DF80F0004B080BD000080B586B00C
:104EC00005908DF813100392029305989DF8131026
:104ED00001F00F0101EBC10100EB810014300190E2
:104EE00003980199C860029801990861019900200E
:104EF00048610199012048709DF8130000F00F00EF
:104F00000199087005988079012804D1FFE703987A
:104F10000199C861FFE7059A1068019992790DF02F
:104F2000C5FE002006B080BD80B58CB00B900B98FC
:104F300000680A900A9809900B9800680EF0E8F94A
:104F4000002840F00C84FFE70B9800680EF04CFA44
:104F500010B9FFE700F003BC0998D0F80808C0F3C7
:104F60000D200B99C1F8D4040B9800680EF03CFAA0
:104F70008007002807D5FFE70B980168486900F013
:104F800002004861FFE70B9800680EF02DFAC0069A
:104F9000002862D5FFE70B980168886920F01000AF
:104FA00088610A98006A02900B98029901F00F013B
:104FB00001EBC10100EB810000F51570089002982B
:104FC00000F4F0110220B0EB514F23D1FFE7BDF800
:104FD000080047F6F07108421BD0FFE70A980899CD
:104FE000C968029AC2F30A120EF00CFA029847F648
:104FF000F07100EA0103089AD06800EB1310D0604A
:10500000029800EA01020899486900EB1210486111
:10501000FFE71BE0029800F4F0110620B0EB514FBF
:1050200012D1FFE70A980B9901F29C4108220EF079
:10503000E9F9029847F6F07100EA01020899486917
:1050400000EB1210486100E0FFE7FFE70B980168F2
:10505000886940F010008861FFE70B9800680EF047
:10506000C3F90003002840F1A680FFE70020049068
:105070000B9800680EF066F90690FFE70698002886
:1050800000F09880FFE79DF81800C007002800F0A6
:105090008A80FFE70B9800689DF810100EF08CF9DD
:1050A00005909DF81400C00760B1FFE709980499C6
:1050B00000EB41110120C1F8080B0B98049907F08F
:1050C0004DF9FFE79DF81400000700280CD5FFE715
:1050D0000998049900EB41110820C1F8080B0B98BE
:1050E000049907F0F5F8FFE79DF81400C0060028C2
:1050F00008D5FFE70998049900EB41111020C1F889
:10510000080BFFE79DF81400800700282DD5FFE766
:105110000A9840690006002808D5FFE70999D1F8E8
:10512000040840F48060C1F80408FFE70B98049974
:1051300001EBC10100EB810000F5157008900898A3
:10514000C078012809D1FFE708990020C8700B98A2
:105150009DF8101000F014FBFFE70998049900EB8C
:1051600041110220C1F8080BFFE79DF814008006EA
:10517000002808D5FFE70998049900EB4111202089
:10518000C1F8080BFFE79DF815008006002809D537
:10519000FFE70998049900EB41114FF40050C1F862
:1051A000080BFFE7FFE704980130049006984008D9
:1051B000069063E7FFE70B9800680EF015F94003CF
:1051C000002840F1C680FFE70B9800680EF0A8F8B1
:1051D000069000200490FFE70698002800F0B880B1
:1051E000FFE79DF81800C007002800F0AA80FFE73D
:1051F0000B9800689DF810100EF0B6F805909DF819
:105200001400C00700283ED0FFE7049800F00F010B
:10521000012000FA01F10391039B099AD2F8341896
:105220009943C2F834180999049A01EB4211C1F864
:1052300008090B98807901281FD1FFE70B98049982
:1052400001EBC10100EB8101CA69086A10440862E0
:10525000049888B9FFE70B98049901EBC10100EBB2
:105260008100406A40B9FFE70B99086801F29C424F
:1052700001210DF027FCFFE7FFE70B989DF81010C8
:10528000FFF7D2FBFFE79DF814000007002808D5C0
:10529000FFE70998049900EB41110820C1F80809BB
:1052A000FFE79DF81400C006002808D5FFE709981D
:1052B000049900EB41111020C1F80809FFE79DF89F
:1052C00014004006002808D5FFE70998049900EB70
:1052D00041114020C1F80809FFE79DF8140080073C
:1052E000002822D5FFE70A9804990DF0ADFF0B982E
:1052F000049901EBC10100EB81001430089008987B
:10530000C078012809D1FFE708990020C8700B98E0
:105310009DF8101000F026FAFFE70998049900EBB9
:1053200041110220C1F80809FFE79DF814000006AA
:10533000002805D5FFE70B98049907F0F3F8FFE77D
:10534000FFE704980130049006984008069043E770
:10535000FFE70B9800680EF047F8C00F00B3FFE7B7
:105360000999D1F8040820F00100C1F804080B984D
:1053700090F8CC04012808D1FFE70B98002180F8B1
:10538000CC140B98FFF7E6FA03E00B9800F0AAFBA9
:10539000FFE70B980168486900F000404861FFE7AB
:1053A0000B9800680EF020F80005002811D5FFE7E3
:1053B0000998D0F80808C00720B1FFE70B9800F063
:1053C0001DFCFFE70B980168486900F40060486124
:1053D000FFE70B9800680EF007F8C004002840F1C2
:1053E0008680FFE70999D1F8040820F00100C1F890
:1053F00004080B98006810210DF026FF002007908C
:10540000FFE707980B990979884231D2FFE709989D
:10541000079900EB41114FF67F30C1F8080909994F
:10542000079A01EB4212D2F8001921F40011C2F8D8
:1054300000190999079A01EB4211C1F8080B099864
:10544000079900EB4111D1F8000B20F40010C1F8CE
:10545000000B0998079900EB4111D1F8000B40F0BF
:105460000060C1F8000BFFE7079801300790C8E71C
:105470000999D1F81C0840F00110C1F81C080B98DC
:10548000C07B78B1FFE70999D1F8840840F00B00A0
:10549000C1F884080999D1F8440840F00B00C1F81C
:1054A00044080FE00999D1F8140842F22B02104386
:1054B000C1F814080999D1F8100840F00B00C1F8A0
:1054C0001008FFE70999D1F8000820F4FE60C1F840
:1054D00000080B9A1068917902F29C420DF0F2FAE2
:1054E0000B980168486900F480504861FFE70B9809
:1054F00000680DF079FF800400281FD5FFE70B98A6
:1055000000680CF0F9FF0B9800680DF0DBFE0B99BA
:10551000C8710B980068019000F0ECFC01460198FE
:105520000B9AD2790EF066F80B9800F0B1FA0B984E
:105530000168486900F400504861FFE70B98006873
:105540000DF052FF000700280AD5FFE70B9800F086
:10555000D3FA0B980168486900F008004861FFE73A
:105560000B9800680DF040FF0006002825D5FFE7E6
:105570000A99886920F08000886101200490FFE783
:1055800004980B990979884216D2FFE70B98049981
:1055900001EBC10100EB810090F85702012806D110
:1055A000FFE70B989DF81010FFF770FAFFE7FFE791
:1055B000049801300490E3E7FFE70B9800680DF0D2
:1055C00013FFC00200283CD5FFE701200490FFE74D
:1055D00004980B99097988422CD2FFE7099804991D
:1055E00000EB4110D0F8000902900B98049901EBF0
:1055F000C10100EB8100007E012816D1FFE79DF874
:105600000B000006002810D5FFE70B98049901EB6A
:10561000C10100EB81010120C8750B989DF81010A5
:1056200041F08001FFF732FAFFE7FFE7049801300D
:105630000490CDE70B980168486900F48010486138
:10564000FFE70B9800680DF0CFFE8002002856D5CA
:10565000FFE701200490FFE704980B99097988423D
:1056600046D2FFE70998049900EB4110D0F8000BEF
:1056700002900B98049901EBC10100EB810090F8B6
:10568000580201282FD1FFE79DF80B0000060028E3
:1056900029D5FFE7029800F480310B98D0F8D404A4
:1056A00000F00100B0EB114F1DD1FFE70B980499FA
:1056B00001EBC10100EB8101012081F857020A9939
:1056C000886940F0800088610A98406900060028D7
:1056D00008D4FFE70999D1F8040840F40070C1F834
:1056E000040805E0FFE7FFE7049801300490B3E702
:1056F0000B980168486900F400104861FFE70B98B7
:1057000000680DF071FE400000280AD5FFE70B98F5
:10571000FFF780F90B980168486900F08040486104
:10572000FFE70B9800680DF05FFE4007002815D5D5
:10573000FFE70B980068406802909DF8080040075A
:10574000002804D5FFE70B98FFF796F9FFE7029AC8
:105750000B980168486810434860FFE7FFE70CB00A
:1057600080BD000080B582B001908DF803100198D3
:10577000D0F8E0049DF803100BF0A6FF02B080BD46
:1057800080B582B001908DF803100198D0F8E00444
:105790009DF803100BF0D0FF02B080BD80B58EB035
:1057A0000C900C9820B9FFE701208DF8370012E12A
:1057B0000C9800680B900C9890F8950440B9FFE79E
:1057C0000C99002081F894040C9800F009F9FFE787
:1057D0000C99032081F895040B98B0F1A04F04D1E7
:1057E000FFE70C9900208871FFE70C9800680DF026
:1057F0005FF90C9B1868197C8DF8241059689A6819
:10580000DB680893079206910699079A089BDDF8D2
:1058100024C0EE46CEF800C00CF084FE40B1FFE795
:105820000C99022081F8950401208DF83700D2E010
:105830000C98006800210DF03FFE40B1FFE70C9985
:10584000022081F8950401208DF83700C3E0002084
:105850008DF82B00FFE79DF82B000C990979884201
:1058600041DAFFE70C989DF82B1001EBC10100EB2A
:105870008101012048759DF82B000C9900EBC002B6
:1058800001EB820108759DF82B000C9900EBC0021A
:1058900001EB8201C8850C989DF82B1001EBC1012A
:1058A00000EB8101002008760C999DF82B2002EB7B
:1058B000C20201EB8201C8610C999DF82B2002EB1A
:1058C000C20201EB820108620C999DF82B2002EBC9
:1058D000C20201EB82014862FFE79DF82B00013014
:1058E0008DF82B00B7E700208DF82B00FFE79DF81F
:1058F0002B000C99097988423EDAFFE70C989DF855
:105900002B1001EBC10100EB8101002081F8550251
:105910009DF82B100C9A01EBC10302EB830282F875
:1059200054120C999DF82B2002EBC20201EB82016C
:1059300081F858020C999DF82B2002EBC20201EB72
:105940008201C1F85C020C999DF82B2002EBC20287
:1059500001EB8201C1F860020C999DF82B2002EB4B
:10596000C20201EB8201C1F86402FFE79DF82B003F
:1059700001308DF82B00BAE70C9B1868197C8DF864
:10598000141059689A68DB68049303920291029993
:10599000039A049BDDF814C0EE46CEF800C00CF06C
:1059A00039FF40B1FFE70C99022081F895040120EE
:1059B0008DF837000FE00C990020019048740C9985
:1059C000012081F895040C9800680CF00DFF0198F7
:1059D0008DF83700FFE79DF837000EB080BD00005E
:1059E00080B58AB009900020089007900690059035
:1059F000049009980068B0F1A04F47D1FFE7FFE796
:105A00000020039043F63000C4F20200016841F028
:105A100001010160006800F0010003900398FFE7B6
:105A20004FF4C050049002200590002006900320FF
:105A300007900A2008900020C4F2020004A9FEF793
:105A4000B7FAFFE743F63401C4F20201086840F0F8
:105A500080000860FFE70020029043F64400C4F293
:105A60000200016841F480410160006800F4804058
:105A700002900298FFE7FFE74320019005210022F2
:105A8000FEF746FF0198FEF739FFFFE70AB080BD39
:105A900080B582B0019001208DF803000198C07993
:105AA00020B9FFE700208DF803000CE00198C079D1
:105AB000022804D1FFE701208DF8030002E0FCF783
:105AC0009FFEFFE7FFE70198D0F8E0049DF8031080
:105AD0000BF034FF0198D0F8E0040BF0ADFE02B0FB
